{
  "contractName": "EmurgoCertificate",
  "abi": [
    {
      "constant": true,
      "inputs": [],
      "name": "owner",
      "outputs": [
        {
          "name": "",
          "type": "address"
        }
      ],
      "payable": false,
      "stateMutability": "view",
      "type": "function"
    },
    {
      "constant": true,
      "inputs": [
        {
          "name": "",
          "type": "string"
        }
      ],
      "name": "certificatesIssued",
      "outputs": [
        {
          "name": "issuedBy",
          "type": "string"
        },
        {
          "name": "issuedTo",
          "type": "string"
        },
        {
          "name": "issuedOn",
          "type": "string"
        },
        {
          "name": "updatedOn",
          "type": "string"
        },
        {
          "name": "certificateTypeId",
          "type": "string"
        },
        {
          "name": "isActive",
          "type": "bool"
        }
      ],
      "payable": false,
      "stateMutability": "view",
      "type": "function"
    },
    {
      "constant": true,
      "inputs": [
        {
          "name": "",
          "type": "string"
        }
      ],
      "name": "certificateType",
      "outputs": [
        {
          "name": "name",
          "type": "string"
        },
        {
          "name": "description",
          "type": "string"
        },
        {
          "name": "isActive",
          "type": "bool"
        }
      ],
      "payable": false,
      "stateMutability": "view",
      "type": "function"
    },
    {
      "constant": true,
      "inputs": [
        {
          "name": "",
          "type": "address"
        }
      ],
      "name": "managers",
      "outputs": [
        {
          "name": "",
          "type": "bool"
        }
      ],
      "payable": false,
      "stateMutability": "view",
      "type": "function"
    },
    {
      "inputs": [],
      "payable": false,
      "stateMutability": "nonpayable",
      "type": "constructor"
    },
    {
      "anonymous": false,
      "inputs": [
        {
          "indexed": false,
          "name": "Id",
          "type": "string"
        },
        {
          "indexed": false,
          "name": "name",
          "type": "string"
        },
        {
          "indexed": false,
          "name": "description",
          "type": "string"
        }
      ],
      "name": "certificateTypeAddedOrModified",
      "type": "event"
    },
    {
      "anonymous": false,
      "inputs": [
        {
          "indexed": false,
          "name": "Id",
          "type": "string"
        },
        {
          "indexed": false,
          "name": "certificateTypeId",
          "type": "string"
        },
        {
          "indexed": false,
          "name": "issuedTo",
          "type": "string"
        }
      ],
      "name": "certificateIssuedOrModified",
      "type": "event"
    },
    {
      "anonymous": false,
      "inputs": [
        {
          "indexed": false,
          "name": "certificateId",
          "type": "string"
        },
        {
          "indexed": false,
          "name": "projectName",
          "type": "string"
        },
        {
          "indexed": false,
          "name": "learnerName",
          "type": "string"
        }
      ],
      "name": "projectAddedtoCertificate",
      "type": "event"
    },
    {
      "constant": false,
      "inputs": [
        {
          "name": "_manager",
          "type": "address"
        }
      ],
      "name": "addManager",
      "outputs": [],
      "payable": false,
      "stateMutability": "nonpayable",
      "type": "function"
    },
    {
      "constant": false,
      "inputs": [
        {
          "name": "_manager",
          "type": "address"
        }
      ],
      "name": "removeManager",
      "outputs": [],
      "payable": false,
      "stateMutability": "nonpayable",
      "type": "function"
    },
    {
      "constant": false,
      "inputs": [
        {
          "name": "_newOwner",
          "type": "address"
        }
      ],
      "name": "changeOwner",
      "outputs": [],
      "payable": false,
      "stateMutability": "nonpayable",
      "type": "function"
    },
    {
      "constant": false,
      "inputs": [
        {
          "name": "certTypeId",
          "type": "string"
        },
        {
          "name": "_name",
          "type": "string"
        },
        {
          "name": "_description",
          "type": "string"
        },
        {
          "name": "_skills",
          "type": "string[]"
        },
        {
          "name": "_earningCriteria",
          "type": "string[]"
        }
      ],
      "name": "addCertificateType",
      "outputs": [],
      "payable": false,
      "stateMutability": "nonpayable",
      "type": "function"
    },
    {
      "constant": false,
      "inputs": [
        {
          "name": "certId",
          "type": "string"
        },
        {
          "name": "certTypeId",
          "type": "string"
        },
        {
          "name": "_issuedBy",
          "type": "string"
        },
        {
          "name": "_issuedTo",
          "type": "string"
        },
        {
          "name": "_issuedOn",
          "type": "string"
        }
      ],
      "name": "issueCertificate",
      "outputs": [],
      "payable": false,
      "stateMutability": "nonpayable",
      "type": "function"
    },
    {
      "constant": false,
      "inputs": [
        {
          "name": "certId",
          "type": "string"
        },
        {
          "name": "_title",
          "type": "string"
        },
        {
          "name": "_description",
          "type": "string"
        },
        {
          "name": "_url",
          "type": "string"
        },
        {
          "name": "_technology",
          "type": "string"
        },
        {
          "name": "_updatedOn",
          "type": "string"
        }
      ],
      "name": "addProjectToCertificate",
      "outputs": [],
      "payable": false,
      "stateMutability": "nonpayable",
      "type": "function"
    },
    {
      "constant": true,
      "inputs": [
        {
          "name": "certId",
          "type": "string"
        }
      ],
      "name": "returnCertificate",
      "outputs": [
        {
          "name": "learnerName",
          "type": "string"
        },
        {
          "name": "name",
          "type": "string"
        },
        {
          "name": "description",
          "type": "string"
        },
        {
          "name": "skills",
          "type": "string[]"
        },
        {
          "name": "earningCriteria",
          "type": "string[]"
        },
        {
          "name": "contractAddress",
          "type": "address"
        },
        {
          "components": [
            {
              "name": "title",
              "type": "string"
            },
            {
              "name": "technology",
              "type": "string"
            },
            {
              "name": "description",
              "type": "string"
            },
            {
              "name": "url",
              "type": "string"
            }
          ],
          "name": "projectsByLearner",
          "type": "tuple[]"
        },
        {
          "name": "issuedBy",
          "type": "string"
        },
        {
          "name": "issuedOn",
          "type": "string"
        },
        {
          "name": "updatedOn",
          "type": "string"
        }
      ],
      "payable": false,
      "stateMutability": "view",
      "type": "function"
    }
  ],
  "bytecode": "0x608060405234801561001057600080fd5b50336000806101000a81548173ffffffffffffffffffffffffffffffffffffffff021916908373ffffffffffffffffffffffffffffffffffffffff160217905550612b8f806100606000396000f3fe608060405234801561001057600080fd5b50600436106100a95760003560e01c8063a6f9dae111610071578063a6f9dae114610159578063ac18de4314610175578063bfbcc3eb14610191578063c75e5808146101c6578063d20cd084146101e2578063fdff9b4d14610214576100a9565b80632d06177a146100ae57806335318158146100ca5780635393213f146100e65780635db3323a1461011f5780638da5cb5b1461013b575b600080fd5b6100c860048036036100c39190810190611ee6565b610244565b005b6100e460048036036100df9190810190612080565b6102f7565b005b61010060048036036100fb9190810190611f50565b61060c565b6040516101169a999897969594939291906126f4565b60405180910390f35b61013960048036036101349190810190611f91565b611034565b005b610143611217565b6040516101509190612672565b60405180910390f35b610173600480360361016e9190810190611ee6565b61123c565b005b61018f600480360361018a9190810190611ee6565b6112d8565b005b6101ab60048036036101a69190810190611f0f565b61138c565b6040516101bd96959493929190612860565b60405180910390f35b6101e060048036036101db919081019061216f565b6116e3565b005b6101fc60048036036101f79190810190611f0f565b611988565b60405161020b9392919061281b565b60405180910390f35b61022e60048036036102299190810190611ee6565b611b05565b60405161023b919061268d565b60405180910390f35b6000809054906101000a900473ffffffffffffffffffffffffffffffffffffffff1673ffffffffffffffffffffffffffffffffffffffff163373ffffffffffffffffffffffffffffffffffffffff161461029d57600080fd5b60018060008373ffffffffffffffffffffffffffffffffffffffff1673ffffffffffffffffffffffffffffffffffffffff16815260200190815260200160002060006101000a81548160ff02191690831515021790555050565b600160003373ffffffffffffffffffffffffffffffffffffffff1673ffffffffffffffffffffffffffffffffffffffff16815260200190815260200160002060009054906101000a900460ff168061039b57506000809054906101000a900473ffffffffffffffffffffffffffffffffffffffff1673ffffffffffffffffffffffffffffffffffffffff163373ffffffffffffffffffffffffffffffffffffffff16145b6103a457600080fd5b6002846040516103b4919061265b565b908152602001604051809103902060040160009054906101000a900460ff16610412576040517f08c379a0000000000000000000000000000000000000000000000000000000008152600401610409906128e4565b60405180910390fd5b81600386604051610423919061265b565b90815260200160405180910390206001019080519060200190610447929190611b25565b5082600386604051610459919061265b565b9081526020016040518091039020600001908051906020019061047d929190611b25565b508360038660405161048f919061265b565b908152602001604051809103902060040190805190602001906104b3929190611b25565b506003856040516104c4919061265b565b908152602001604051809103902060050160009054906101000a900460ff161561052357806003866040516104f9919061265b565b9081526020016040518091039020600301908051906020019061051d929190611b25565b506105ca565b6001600386604051610535919061265b565b908152602001604051809103902060050160006101000a81548160ff0219169083151502179055508060038660405161056e919061265b565b90815260200160405180910390206002019080519060200190610592929190611b25565b50806003866040516105a4919061265b565b908152602001604051809103902060030190805190602001906105c8929190611b25565b505b7ff9cf7cd89f8b108b1c3a5b1d26a2f38035db478dbe1cb219d8f746464d8206ca8585846040516105fd939291906126a8565b60405180910390a15050505050565b60608060608060606000606080606080610624611ba5565b60038c604051610634919061265b565b90815260200160405180910390206040518060e0016040529081600082018054600181600116156101000203166002900480601f0160208091040260200160405190810160405280929190818152602001828054600181600116156101000203166002900480156106e65780601f106106bb576101008083540402835291602001916106e6565b820191906000526020600020905b8154815290600101906020018083116106c957829003601f168201915b50505050508152602001600182018054600181600116156101000203166002900480601f0160208091040260200160405190810160405280929190818152602001828054600181600116156101000203166002900480156107885780601f1061075d57610100808354040283529160200191610788565b820191906000526020600020905b81548152906001019060200180831161076b57829003601f168201915b50505050508152602001600282018054600181600116156101000203166002900480601f01602080910402602001604051908101604052809291908181526020018280546001816001161561010002031660029004801561082a5780601f106107ff5761010080835404028352916020019161082a565b820191906000526020600020905b81548152906001019060200180831161080d57829003601f168201915b50505050508152602001600382018054600181600116156101000203166002900480601f0160208091040260200160405190810160405280929190818152602001828054600181600116156101000203166002900480156108cc5780601f106108a1576101008083540402835291602001916108cc565b820191906000526020600020905b8154815290600101906020018083116108af57829003601f168201915b50505050508152602001600482018054600181600116156101000203166002900480601f01602080910402602001604051908101604052809291908181526020018280546001816001161561010002031660029004801561096e5780601f106109435761010080835404028352916020019161096e565b820191906000526020600020905b81548152906001019060200180831161095157829003601f168201915b505050505081526020016005820160009054906101000a900460ff1615151515815260200160068201805480602002602001604051908101604052809291908181526020016000905b82821015610c715783829060005260206000209060040201604051806080016040529081600082018054600181600116156101000203166002900480601f016020809104026020016040519081016040528092919081815260200182805460018160011615610100020316600290048015610a735780601f10610a4857610100808354040283529160200191610a73565b820191906000526020600020905b815481529060010190602001808311610a5657829003601f168201915b50505050508152602001600182018054600181600116156101000203166002900480601f016020809104026020016040519081016040528092919081815260200182805460018160011615610100020316600290048015610b155780601f10610aea57610100808354040283529160200191610b15565b820191906000526020600020905b815481529060010190602001808311610af857829003601f168201915b50505050508152602001600282018054600181600116156101000203166002900480601f016020809104026020016040519081016040528092919081815260200182805460018160011615610100020316600290048015610bb75780601f10610b8c57610100808354040283529160200191610bb7565b820191906000526020600020905b815481529060010190602001808311610b9a57829003601f168201915b50505050508152602001600382018054600181600116156101000203166002900480601f016020809104026020016040519081016040528092919081815260200182805460018160011615610100020316600290048015610c595780601f10610c2e57610100808354040283529160200191610c59565b820191906000526020600020905b815481529060010190602001808311610c3c57829003601f168201915b505050505081525050815260200190600101906109b7565b5050505081525050905080602001519a50806000015193508060400151925080606001519150610c9f611be4565b60028260800151604051610cb39190612644565b90815260200160405180910390206040518060a0016040529081600082018054600181600116156101000203166002900480601f016020809104026020016040519081016040528092919081815260200182805460018160011615610100020316600290048015610d655780601f10610d3a57610100808354040283529160200191610d65565b820191906000526020600020905b815481529060010190602001808311610d4857829003601f168201915b50505050508152602001600182018054600181600116156101000203166002900480601f016020809104026020016040519081016040528092919081815260200182805460018160011615610100020316600290048015610e075780601f10610ddc57610100808354040283529160200191610e07565b820191906000526020600020905b815481529060010190602001808311610dea57829003601f168201915b5050505050815260200160028201805480602002602001604051908101604052809291908181526020016000905b82821015610ef1578382906000526020600020018054600181600116156101000203166002900480601f016020809104026020016040519081016040528092919081815260200182805460018160011615610100020316600290048015610edd5780601f10610eb257610100808354040283529160200191610edd565b820191906000526020600020905b815481529060010190602001808311610ec057829003601f168201915b505050505081526020019060010190610e35565b50505050815260200160038201805480602002602001604051908101604052809291908181526020016000905b82821015610fda578382906000526020600020018054600181600116156101000203166002900480601f016020809104026020016040519081016040528092919081815260200182805460018160011615610100020316600290048015610fc65780601f10610f9b57610100808354040283529160200191610fc6565b820191906000526020600020905b815481529060010190602001808311610fa957829003601f168201915b505050505081526020019060010190610f1e565b5050505081526020016004820160009054906101000a900460ff161515151581525050905080600001519a508060200151995080604001519850806060015197503096508160c00151955050509193959799509193959799565b600160003373ffffffffffffffffffffffffffffffffffffffff1673ffffffffffffffffffffffffffffffffffffffff16815260200190815260200160002060009054906101000a900460ff16806110d857506000809054906101000a900473ffffffffffffffffffffffffffffffffffffffff1673ffffffffffffffffffffffffffffffffffffffff163373ffffffffffffffffffffffffffffffffffffffff16145b6110e157600080fd5b6110e9611be4565b84816000018190525083816020018190525082816040018190525081816060018190525060018160800190151590811515815250508060028760405161112f919061265b565b90815260200160405180910390206000820151816000019080519060200190611159929190611c15565b506020820151816001019080519060200190611176929190611c15565b506040820151816002019080519060200190611193929190611c95565b5060608201518160030190805190602001906111b0929190611c95565b5060808201518160040160006101000a81548160ff0219169083151502179055509050507f934b740e36c276cca22b6f6be9041bd01f0106627fc07e5a016bb099b99cd5fb868686604051611207939291906126a8565b60405180910390a1505050505050565b6000809054906101000a900473ffffffffffffffffffffffffffffffffffffffff1681565b6000809054906101000a900473ffffffffffffffffffffffffffffffffffffffff1673ffffffffffffffffffffffffffffffffffffffff163373ffffffffffffffffffffffffffffffffffffffff161461129557600080fd5b806000806101000a81548173ffffffffffffffffffffffffffffffffffffffff021916908373ffffffffffffffffffffffffffffffffffffffff16021790555050565b6000809054906101000a900473ffffffffffffffffffffffffffffffffffffffff1673ffffffffffffffffffffffffffffffffffffffff163373ffffffffffffffffffffffffffffffffffffffff161461133157600080fd5b6000600160008373ffffffffffffffffffffffffffffffffffffffff1673ffffffffffffffffffffffffffffffffffffffff16815260200190815260200160002060006101000a81548160ff02191690831515021790555050565b600381805160208101820180518482526020830160208501208183528095505050505050600091509050806000018054600181600116156101000203166002900480601f01602080910402602001604051908101604052809291908181526020018280546001816001161561010002031660029004801561144e5780601f106114235761010080835404028352916020019161144e565b820191906000526020600020905b81548152906001019060200180831161143157829003601f168201915b505050505090806001018054600181600116156101000203166002900480601f0160208091040260200160405190810160405280929190818152602001828054600181600116156101000203166002900480156114ec5780601f106114c1576101008083540402835291602001916114ec565b820191906000526020600020905b8154815290600101906020018083116114cf57829003601f168201915b505050505090806002018054600181600116156101000203166002900480601f01602080910402602001604051908101604052809291908181526020018280546001816001161561010002031660029004801561158a5780601f1061155f5761010080835404028352916020019161158a565b820191906000526020600020905b81548152906001019060200180831161156d57829003601f168201915b505050505090806003018054600181600116156101000203166002900480601f0160208091040260200160405190810160405280929190818152602001828054600181600116156101000203166002900480156116285780601f106115fd57610100808354040283529160200191611628565b820191906000526020600020905b81548152906001019060200180831161160b57829003601f168201915b505050505090806004018054600181600116156101000203166002900480601f0160208091040260200160405190810160405280929190818152602001828054600181600116156101000203166002900480156116c65780601f1061169b576101008083540402835291602001916116c6565b820191906000526020600020905b8154815290600101906020018083116116a957829003601f168201915b5050505050908060050160009054906101000a900460ff16905086565b600160003373ffffffffffffffffffffffffffffffffffffffff1673ffffffffffffffffffffffffffffffffffffffff16815260200190815260200160002060009054906101000a900460ff168061178757506000809054906101000a900473ffffffffffffffffffffffffffffffffffffffff1673ffffffffffffffffffffffffffffffffffffffff163373ffffffffffffffffffffffffffffffffffffffff16145b61179057600080fd5b611798611cf5565b858160000181905250848160400181905250838160600181905250828160200181905250816003886040516117cd919061265b565b908152602001604051809103902060030190805190602001906117f1929190611b25565b50600387604051611802919061265b565b908152602001604051809103902060050160009054906101000a900460ff16611860576040517f08c379a000000000000000000000000000000000000000000000000000000000815260040161185790612904565b60405180910390fd5b600387604051611870919061265b565b9081526020016040518091039020600601819080600181540180825580915050906001820390600052602060002090600402016000909192909190915060008201518160000190805190602001906118c9929190611c15565b5060208201518160010190805190602001906118e6929190611c15565b506040820151816002019080519060200190611903929190611c15565b506060820151816003019080519060200190611920929190611c15565b505050507fd703ca61e0c7cc8eba2fc35fd743a83b43748ff9ed1c504e8ac496086a5f8882878760038a604051611957919061265b565b9081526020016040518091039020600101604051611977939291906127cf565b60405180910390a150505050505050565b600281805160208101820180518482526020830160208501208183528095505050505050600091509050806000018054600181600116156101000203166002900480601f016020809104026020016040519081016040528092919081815260200182805460018160011615610100020316600290048015611a4a5780601f10611a1f57610100808354040283529160200191611a4a565b820191906000526020600020905b815481529060010190602001808311611a2d57829003601f168201915b505050505090806001018054600181600116156101000203166002900480601f016020809104026020016040519081016040528092919081815260200182805460018160011615610100020316600290048015611ae85780601f10611abd57610100808354040283529160200191611ae8565b820191906000526020600020905b815481529060010190602001808311611acb57829003601f168201915b5050505050908060040160009054906101000a900460ff16905083565b60016020528060005260406000206000915054906101000a900460ff1681565b828054600181600116156101000203166002900490600052602060002090601f016020900481019282601f10611b6657805160ff1916838001178555611b94565b82800160010185558215611b94579182015b82811115611b93578251825591602001919060010190611b78565b5b509050611ba19190611d1d565b5090565b6040518060e001604052806060815260200160608152602001606081526020016060815260200160608152602001600015158152602001606081525090565b6040518060a00160405280606081526020016060815260200160608152602001606081526020016000151581525090565b828054600181600116156101000203166002900490600052602060002090601f016020900481019282601f10611c5657805160ff1916838001178555611c84565b82800160010185558215611c84579182015b82811115611c83578251825591602001919060010190611c68565b5b509050611c919190611d1d565b5090565b828054828255906000526020600020908101928215611ce4579160200282015b82811115611ce3578251829080519060200190611cd3929190611c15565b5091602001919060010190611cb5565b5b509050611cf19190611d42565b5090565b6040518060800160405280606081526020016060815260200160608152602001606081525090565b611d3f91905b80821115611d3b576000816000905550600101611d23565b5090565b90565b611d6b91905b80821115611d675760008181611d5e9190611d6e565b50600101611d48565b5090565b90565b50805460018160011615610100020316600290046000825580601f10611d945750611db3565b601f016020900490600052602060002090810190611db29190611d1d565b5b50565b6000611dc28235612ad0565b905092915050565b600082601f830112611ddb57600080fd5b8135611dee611de982612951565b612924565b9150818183526020840193506020810190508360005b83811015611e345781358601611e1a8882611e3e565b845260208401935060208301925050600181019050611e04565b5050505092915050565b600082601f830112611e4f57600080fd5b8135611e62611e5d82612979565b612924565b91508082526020830160208301858383011115611e7e57600080fd5b611e89838284612b02565b50505092915050565b600082601f830112611ea357600080fd5b8135611eb6611eb1826129a5565b612924565b91508082526020830160208301858383011115611ed257600080fd5b611edd838284612b02565b50505092915050565b600060208284031215611ef857600080fd5b6000611f0684828501611db6565b91505092915050565b600060208284031215611f2157600080fd5b600082013567ffffffffffffffff811115611f3b57600080fd5b611f4784828501611e3e565b91505092915050565b600060208284031215611f6257600080fd5b600082013567ffffffffffffffff811115611f7c57600080fd5b611f8884828501611e92565b91505092915050565b600080600080600060a08688031215611fa957600080fd5b600086013567ffffffffffffffff811115611fc357600080fd5b611fcf88828901611e92565b955050602086013567ffffffffffffffff811115611fec57600080fd5b611ff888828901611e92565b945050604086013567ffffffffffffffff81111561201557600080fd5b61202188828901611e92565b935050606086013567ffffffffffffffff81111561203e57600080fd5b61204a88828901611dca565b925050608086013567ffffffffffffffff81111561206757600080fd5b61207388828901611dca565b9150509295509295909350565b600080600080600060a0868803121561209857600080fd5b600086013567ffffffffffffffff8111156120b257600080fd5b6120be88828901611e92565b955050602086013567ffffffffffffffff8111156120db57600080fd5b6120e788828901611e92565b945050604086013567ffffffffffffffff81111561210457600080fd5b61211088828901611e92565b935050606086013567ffffffffffffffff81111561212d57600080fd5b61213988828901611e92565b925050608086013567ffffffffffffffff81111561215657600080fd5b61216288828901611e92565b9150509295509295909350565b60008060008060008060c0878903121561218857600080fd5b600087013567ffffffffffffffff8111156121a257600080fd5b6121ae89828a01611e92565b965050602087013567ffffffffffffffff8111156121cb57600080fd5b6121d789828a01611e92565b955050604087013567ffffffffffffffff8111156121f457600080fd5b61220089828a01611e92565b945050606087013567ffffffffffffffff81111561221d57600080fd5b61222989828a01611e92565b935050608087013567ffffffffffffffff81111561224657600080fd5b61225289828a01611e92565b92505060a087013567ffffffffffffffff81111561226f57600080fd5b61227b89828a01611e92565b9150509295509295509295565b6000612294838361241a565b905092915050565b60006122a883836125cc565b905092915050565b6122b981612a92565b82525050565b60006122ca826129fd565b6122d48185612a43565b9350836020820285016122e6856129d1565b60005b8481101561231f578383038852612301838351612288565b925061230c82612a29565b91506020880197506001810190506122e9565b508196508694505050505092915050565b600061233b82612a08565b6123458185612a54565b935083602082028501612357856129de565b60005b8481101561239057838303885261237283835161229c565b925061237d82612a36565b915060208801975060018101905061235a565b508196508694505050505092915050565b6123aa81612aa4565b82525050565b60006123bb82612a1e565b6123c58185612a76565b93506123d5818560208601612b11565b6123de81612b44565b840191505092915050565b60006123f482612a1e565b6123fe8185612a87565b935061240e818560208601612b11565b80840191505092915050565b600061242582612a13565b61242f8185612a65565b935061243f818560208601612b11565b61244881612b44565b840191505092915050565b600061245e82612a13565b6124688185612a76565b9350612478818560208601612b11565b61248181612b44565b840191505092915050565b600061249782612a13565b6124a18185612a87565b93506124b1818560208601612b11565b80840191505092915050565b6000815460018116600081146124da576001811461250057612544565b607f60028304166124eb8187612a76565b955060ff198316865260208601935050612544565b6002820461250e8187612a76565b9550612519856129eb565b60005b8281101561253b5781548189015260018201915060208101905061251c565b80880195505050505b505092915050565b6000612559601f83612a76565b91507f4365727469666963617465207479706520646f6573206e6f74206578697374006000830152602082019050919050565b6000612599601a83612a76565b91507f436572746966696361746520646f6573206e6f742065786973740000000000006000830152602082019050919050565b600060808301600083015184820360008601526125e9828261241a565b91505060208301518482036020860152612603828261241a565b9150506040830151848203604086015261261d828261241a565b91505060608301518482036060860152612637828261241a565b9150508091505092915050565b6000612650828461248c565b915081905092915050565b600061266782846123e9565b915081905092915050565b600060208201905061268760008301846122b0565b92915050565b60006020820190506126a260008301846123a1565b92915050565b600060608201905081810360008301526126c281866123b0565b905081810360208301526126d681856123b0565b905081810360408301526126ea81846123b0565b9050949350505050565b600061014082019050818103600083015261270f818d6123b0565b90508181036020830152612723818c6123b0565b90508181036040830152612737818b6123b0565b9050818103606083015261274b818a6122bf565b9050818103608083015261275f81896122bf565b905061276e60a08301886122b0565b81810360c08301526127808187612330565b905081810360e083015261279481866123b0565b90508181036101008301526127a981856123b0565b90508181036101208301526127be81846123b0565b90509b9a5050505050505050505050565b600060608201905081810360008301526127e981866123b0565b905081810360208301526127fd81856123b0565b9050818103604083015261281181846124bd565b9050949350505050565b600060608201905081810360008301526128358186612453565b905081810360208301526128498185612453565b905061285860408301846123a1565b949350505050565b600060c082019050818103600083015261287a8189612453565b9050818103602083015261288e8188612453565b905081810360408301526128a28187612453565b905081810360608301526128b68186612453565b905081810360808301526128ca8185612453565b90506128d960a08301846123a1565b979650505050505050565b600060208201905081810360008301526128fd8161254c565b9050919050565b6000602082019050818103600083015261291d8161258c565b9050919050565b6000604051905081810181811067ffffffffffffffff8211171561294757600080fd5b8060405250919050565b600067ffffffffffffffff82111561296857600080fd5b602082029050602081019050919050565b600067ffffffffffffffff82111561299057600080fd5b601f19601f8301169050602081019050919050565b600067ffffffffffffffff8211156129bc57600080fd5b601f19601f8301169050602081019050919050565b6000602082019050919050565b6000602082019050919050565b60008160005260206000209050919050565b600081519050919050565b600081519050919050565b600081519050919050565b600081519050919050565b6000602082019050919050565b6000602082019050919050565b600082825260208201905092915050565b600082825260208201905092915050565b600082825260208201905092915050565b600082825260208201905092915050565b600081905092915050565b6000612a9d82612ab0565b9050919050565b60008115159050919050565b600073ffffffffffffffffffffffffffffffffffffffff82169050919050565b6000612adb82612ae2565b9050919050565b600073ffffffffffffffffffffffffffffffffffffffff82169050919050565b82818337600083830152505050565b60005b83811015612b2f578082015181840152602081019050612b14565b83811115612b3e576000848401525b50505050565b6000601f19601f830116905091905056fea265627a7a723058202d4bf70dd751fbcd2ea43c1d3c11cdb5c83fd5f4d0571d74ac5b8b3ef06c4d8b6c6578706572696d656e74616cf50037",
  "source": "pragma solidity ^0.5.6;\r\npragma experimental ABIEncoderV2;\r\n\r\ncontract EmurgoCertificate {\r\n    //owner\r\n    address public owner;\r\n    //managers\r\n    mapping(address=>bool) public managers;\r\n    //certificate type\r\n    struct certificateClassification {\r\n        string name;\r\n        string description;\r\n        string[] skills;\r\n        string[] earningCriteria;\r\n        bool isActive;\r\n    }\r\n    mapping(string=>certificateClassification) public certificateType;\r\n    //project struct\r\n    struct project {\r\n        string title;\r\n        string technology;\r\n        string description;\r\n        string url;\r\n    }\r\n    //certificate details\r\n    struct learnerCertificate {\r\n        string issuedBy;\r\n        string issuedTo;\r\n        string issuedOn;\r\n        string updatedOn;\r\n        string certificateTypeId;\r\n        bool isActive;\r\n        project[] projectsByLearner;\r\n    }\r\n    //certificate id to certificate mapping\r\n    mapping(string=>learnerCertificate) public certificatesIssued;\r\n    //events\r\n    event certificateTypeAddedOrModified(string Id,string name,string description);\r\n    event certificateIssuedOrModified(string Id,string certificateTypeId,string issuedTo);\r\n    event projectAddedtoCertificate(string certificateId,string projectName,string learnerName);\r\n    //constructor\r\n    constructor() public {\r\n        owner = msg.sender;\r\n    }\r\n    //modifiers\r\n    modifier onlyOwner() {\r\n        require(msg.sender==owner);\r\n        _;\r\n    }\r\n    modifier onlyOwnerOrManager() {\r\n        require(managers[msg.sender] || msg.sender==owner);\r\n        _;\r\n    }\r\n    //f-add manager\r\n    function addManager(address _manager) public onlyOwner {\r\n        managers[_manager]=true;\r\n    }\r\n    //f-remove manager\r\n    function removeManager(address _manager) public onlyOwner {\r\n        managers[_manager]=false;\r\n    }\r\n    //f-change owner\r\n    function changeOwner(address _newOwner) public onlyOwner {\r\n        owner=_newOwner;\r\n    }\r\n    //f-add certificate type\r\n    function addCertificateType(string memory certTypeId, string memory _name, string memory _description, string[] memory _skills,string[] memory _earningCriteria) public onlyOwnerOrManager {\r\n        certificateClassification memory tempCert;\r\n        tempCert.name=_name;\r\n        tempCert.description=_description;\r\n        tempCert.skills=_skills;\r\n        tempCert.earningCriteria=_earningCriteria;\r\n        tempCert.isActive=true;\r\n        certificateType[certTypeId] = tempCert;\r\n        emit certificateTypeAddedOrModified(certTypeId,_name,_description);\r\n    }\r\n    //f-add certificate\r\n    function issueCertificate(string memory certId,string memory certTypeId, string memory _issuedBy, string memory _issuedTo, string memory _issuedOn) public onlyOwnerOrManager {\r\n        require(certificateType[certTypeId].isActive,'Certificate type does not exist');\r\n        certificatesIssued[certId].issuedTo=_issuedTo;\r\n        certificatesIssued[certId].issuedBy=_issuedBy;\r\n        certificatesIssued[certId].certificateTypeId=certTypeId;\r\n        \r\n        if(certificatesIssued[certId].isActive){\r\n        certificatesIssued[certId].updatedOn=_issuedOn;\r\n        }\r\n        else{\r\n            certificatesIssued[certId].isActive=true;\r\n            certificatesIssued[certId].issuedOn=_issuedOn;\r\n        certificatesIssued[certId].updatedOn=_issuedOn;\r\n        }\r\n        //add event\r\n        emit certificateIssuedOrModified(certId,certTypeId,_issuedTo);\r\n    }\r\n    //projects,updated on\r\n    //update projects in certificate\r\n    function addProjectToCertificate(string memory certId, string memory _title, string memory _description, string memory _url,string memory _technology,string memory _updatedOn) public onlyOwnerOrManager {\r\n        project memory tempProject;\r\n        tempProject.title=_title;\r\n        tempProject.description=_description;\r\n        tempProject.url=_url;\r\n        tempProject.technology=_technology;\r\n        certificatesIssued[certId].updatedOn=_updatedOn;\r\n        require(certificatesIssued[certId].isActive,'Certificate does not exist');\r\n        certificatesIssued[certId].projectsByLearner.push(tempProject);\r\n        //add event\r\n        emit projectAddedtoCertificate(certId,_title,certificatesIssued[certId].issuedTo);\r\n    }\r\n    function returnCertificate(string memory certId) public view returns(string memory learnerName, string memory name,string memory description,string[] memory skills,string[] memory earningCriteria,address contractAddress,project[] memory projectsByLearner,string memory issuedBy, string memory issuedOn,string memory updatedOn) {\r\n        learnerCertificate memory tempCert=certificatesIssued[certId];\r\n        learnerName = tempCert.issuedTo;\r\n        issuedBy = tempCert.issuedBy;\r\n        issuedOn = tempCert.issuedOn;\r\n        updatedOn = tempCert.updatedOn;\r\n        certificateClassification memory tempType=certificateType[tempCert.certificateTypeId];\r\n        name = tempType.name;\r\n        description=tempType.description;\r\n        skills=tempType.skills;\r\n        earningCriteria=tempType.earningCriteria;\r\n        contractAddress=address(this);\r\n        projectsByLearner=tempCert.projectsByLearner;\r\n    }\r\n}",
  "sourcePath": "E:/Codes/EMURGO_internship/project03/chaincert-poc/contracts/EmurgoCertificate.sol",
  "compiler": {
    "name": "solc",
    "version": "0.5.6+commit.b259423e.Emscripten.clang"
  },
  "schemaVersion": "3.3.4",
  "updatedAt": "2021-03-16T17:45:29.233Z",
  "networkType": "ethereum",
  "devdoc": {
    "methods": {}
  },
  "userdoc": {
    "methods": {}
  }
}